:100000000C94DC060C9423070C9423070C94230710
:100010000C9423070C9423070C9423070C942307B8
:100020000C9423070C9423070C9477210C944B22F7
:100030000C94EB180C9423070C9423070C942307BF
:100040000C9423070C9423070C9423070C94230788
:100050000C9423070C9451190C9423070C94230738
:100060000C9423070C9423070C9423070C94230768
:100070000C9423070C9423070C9423070C94230758
:100080000C9423070C9423070C9423070C94230748
:100090000C9423070C9423070C9423070C94230738
:1000A0000C9423070C9423070C94230729003A008F
:1000B0003B003C003D003E003F004000410042004C
:1000C00043004400450035001E001F0020002100B1
:1000D0002200230024002500260027002D002E00EA
:1000E0005700000014001A000800150017002B002C
:1000F0001C0018000C001200130039000400160048
:10010000070009000A0028000B000D000E000F0078
:1001100033003400E10031021D001B00060019000D
:10012000E50005001100100036003700380000001F
:10013000E200E000E6002C00E600E400E3005000EE
:1001400051004F004D005200000000000000000070
:10015000000000002F0028004C0030002A004B0057
:100160003100010001000100010001000100010057
:100170000100010001000100010001000100010077
:100180000100010001000100010001000100010067
:100190000100010001000100010001000100010057
:1001A0000100010001000100010001000100010047
:1001B0000100010001000100010001000100010037
:1001C0000100010001000100010001000100010027
:1001D0000100010001000100010001000100010017
:1001E0000100010001000100010001000100010007
:1001F00001000100010001000100010001000000F8
:1002000000000000000000000000010001000100EB
:1002100001000100010001000100010001000100D6
:1002200001000100010001000100010001000100C6
:1002300001000100010001000100010001000100B6
:1002400001000100010001000100010001000100A6
:100250000100010001000100010001000100010096
:100260000100010001000100010001000100010086
:100270000100010001000100010001000100010076
:100280000100010001000100010001000100010066
:100290000100010001000100010001000100010056
:1002A0000100010001000100010001000100010046
:1002B000010001000000000000000000000000003C
:1002C0000100010001000100010001000100010026
:1002D0000100010001000100010001000100010016
:1002E0000100010001000100010001000100010006
:1002F00001000100010001000100010001000100F6
:1003000001000100010001000100010001000100E5
:1003100001000100010001000100010001000100D5
:1003200001000100010001000100010001000100C5
:1003300001000100010001000100010001000100B5
:1003400001000100010001000100010001000100A5
:100350000100010001000100010001000100010095
:100360000100010001000100010000000000000088
:100370000000000000000100010001000100010078
:100380000100010001000100010001000100010065
:100390000100010001000100010001000100010055
:1003A0000100010001000100010001000100010045
:1003B0000100010001000100010001000100010035
:1003C0000100010001000100010001000100010025
:1003D0000100010001000100010001000100010015
:1003E0000100010001000100010001000100010005
:1003F00001000100010001000100010001000100F5
:1004000001000100010001000100010001000100E4
:1004100001000100010001000100010001000100D4
:1004200000000000000000000000000001000100CA
:1004300001000100010001000100010001000100B4
:1004400001000100010001000100010001000100A4
:100450000100010001000100010001000100010094
:100460000100010001000100010001000100010084
:100470000100010001000100010001000100010074
:100480000100010001000100010001000100010064
:100490000100010001000100010001000100010054
:1004A0000100010001000100010001000100010044
:1004B0000100010001000100010001000100010034
:1004C0000100010001000100010001000100010024
:1004D0000100010001000000000000000000000019
:1004E0000000010001000100010001000100010005
:1004F00001000100010001000100010001000100F4
:1005000001000100010001000100010001000100E3
:1005100001000100010001000100010001000100D3
:1005200001000100010001000100010001000100C3
:1005300001000100010001000100010001000100B3
:1005400001000100010001000100010001000100A3
:100550000100010001000100010001000100010093
:100560000100010001000100010001000100010083
:100570000100010001000100010001000100010073
:100580000100010001000100010001000000000065
:100590000000000000000000010001000100010057
:1005A0000100010001000100010001000100010043
:1005B0000100010001000100010001000100010033
:1005C0000100010001000100010001000100010023
:1005D0000100010001000100010001000100010013
:1005E0000100010001000100010001000100010003
:1005F00001000100010001000100010001000100F3
:1006000001000100010001000100010001000100E2
:1006100001000100010001000100010001000100D2
:1006200001000100010001000100010001000100C2
:1006300001000100010001000100010001000100B2
:1006400001000000000000000000000000000100A8
:100650000100010001000100010001000100010092
:100660000100010001000100010001000100010082
:100670000100010001000100010001000100010072
:100680000100010001000100010001000100010062
:100690000100010001000100010001000100010052
:1006A0000100010001000100010001000100010042
:1006B0000100010001000100010001000100010032
:1006C0000100010001000100010001000100010022
:1006D0000100010001000100010001000100010012
:1006E0000100010001000100010001000100010002
:1006F00001000100010001000000000000000000F6
:1007000000000000010001000100010001000100E3
:1007100001000100010001000100010001000100D1
:1007200001000100010001000100010001000100C1
:1007300001000100010001000100010001000100B1
:1007400001000100010001000100010001000100A1
:100750000100010001000100010001000100010091
:100760000100010001000100010001000100010081
:100770000100010001000100010001000100010071
:100780000100010001000100010001000100010061
:100790000100010001000100010001000100010051
:1007A0000100010001000100010001000100000042
:1007B0000000000000000000000001000100010036
:1007C0000100010001000100010001000100010021
:1007D0000100010001000100010001000100010011
:1007E0000100010001000100010001000100010001
:1007F00001000100010001000100010001000100F1
:1008000001000100010001000100010001000100E0
:1008100001000100010001000100010001000100D0
:1008200001000100010001000100010001000100C0
:1008300001000100010001000100010001000100B0
:1008400001000100010001000100010001000100A0
:100850000100010001000100010001000100010090
:100860000100010000000000000000000000000086
:100870000100010001000100010001000100010070
:100880000100010001000100010001000100010060
:100890000100010001000100010001000100010050
:1008A0000100010001000100010001000100010040
:1008B0000100010001000100010001000100010030
:1008C0000100010001000100010001000100010020
:1008D0000100010001000100010001000100010010
:1008E0000100010001000100010001000100010000
:1008F00001000100010001000100010001000100F0
:1009000001000100010001000100010001000100DF
:1009100001000100010001000100000000000000D2
:1009200000000000000001000100010001000100C2
:1009300001000100010001000100010001000100AF
:10094000010001000100010001000100010001009F
:10095000010001000100010001000100010001008F
:10096000010001000100010001000100010001007F
:10097000010001000100010001000100010001006F
:10098000010001000100010001000100010001005F
:10099000010001000100010001000100010001004F
:1009A000010001000100010001000100010001003F
:1009B000010001000100010001000100010001002F
:1009C000010001000100010001000100010001001F
:1009D0000000000000000000000000000100010015
:1009E00001000100010001000100010001000100FF
:1009F00001000100010001000100010001000100EF
:100A000001000100010001000100010001000100DE
:100A100001000100010001000100010001000100CE
:100A200001000100010001000100010001000100BE
:100A300001000100010001000100010001000100AE
:100A4000010001000100010001000100010001009E
:100A5000010001000100010001000100010001008E
:100A6000010001000100010001000100010001007E
:100A7000010001000100010001000100010001006E
:100A80000100010001000000000000000000000063
:100A9000000001000100010001000100010001004F
:100AA000010001000100010001000100010001003E
:100AB000010001000100010001000100010001002E
:100AC000010001000100010001000100010001001E
:100AD000010001000100010001000100010001000E
:100AE00001000100010001000100010001000100FE
:100AF00001000100010001000100010001000100EE
:100B000001000100010001000100010001000100DD
:100B100001000100010001000100010001000100CD
:100B200001000100010001000100010001000100BD
:100B300001000100010001000100010000000000AF
:100B400000000000000000000100010001000100A1
:100B5000010001000100010001000100010001008D
:100B6000010001000100010001000100010001007D
:100B7000010001000100010001000100010001006D
:100B8000010001000100010001000100010001005D
:100B9000010001000100010001000100010001004D
:100BA000010001000100010001000100010001003D
:100BB000010001000100010001000100010001002D
:100BC000010001000100010001000100010001001D
:100BD000010001000100010001000100010001000D
:100BE00001000100010001000100010001000100FD
:100BF00001000000000000000000000000000100F3
:100C000001000100010001000100010012036B005E
:100C10006500790062006F006100720064000000EE
:100C2000160371006D006B006200750069006C00B6
:100C300064006500720000000403090409026D00ED
:100C4000040100A0FA0904000001030101000921C8
:100C5000110100012240000705810308000A090470
:100C600001000103010200092111010001224D00D0
:100C70000705820308000A090402000103000000BE
:100C80000921110100012236000705830308000A2B
:100C900009040300010300000009211101000122E1
:100CA0003900070584032000011201100100000033
:100CB00008EDFE606001000102000105010906A1C6
:100CC00001050719E029E71500250195087501813F
:100CD000020508190129059505750191029501750F
:100CE0000391010507190029F71500250195F875ED
:100CF000018102C005010980A101850216010026BB
:100D000003001A81002A8300751095018100C00537
:100D10000C0901A1018503160100269C021A01009D
:100D20002A9C02751095018100C005010902A101EC
:100D30000901A100050919012905150025019505DD
:100D400075018102950175038101050109300931A1
:100D50001581257F95027508810609381581257F43
:100D6000950175088106050C0A38021581257F95C5
:100D70000175088106C0C005010906A10105071912
:100D8000E029E71500250195087501810295017597
:100D9000088101050819012905950575019102953C
:100DA00001750391010507190029FF150026FF00B1
:100DB000950675088100C00011241FBECFEFDAE050
:100DC000DEBFCDBF04B603FE27C0809166029091BE
:100DD0006702A0916802B09169028730904BA740EA
:100DE000B04BD1F410926602109267021092680222
:100DF0001092690214BE84B7877F84BF0FB6F8943F
:100E0000A8958091600088618093600010926000D6
:100E10000FBEE0E0F8E3099511E0A0E0B1E0E6EBF9
:100E2000FBE402C005900D92AC33B107D9F722E084
:100E3000ACE3B1E001C01D92A636B207E1F70E9413
:100E4000C41E0C948A250C94000090E080E0089564
:100E50000895089581E00895089581E008950C941F
:100E60002A070E949E112FEF84E39CE021508040CE
:100E70009040E1F700C000000C947419FF920F93AA
:100E80001F93CF93DF938C01FC01C081D1818091AE
:100E90008301811146C082818823F1F1CE010E9435
:100EA000CE16F82E682FCE010E947A16BE018F2D25
:100EB0000E947A08EC01B8010E942F07882309F4E8
:100EC00051C0B801CE010E94860A882309F44AC0A5
:100ED000B801CE010E94D70C882309F443C0C53164
:100EE000F0E7DF0718F5C23080E7D80708F04BC0FD
:100EF000C115E0E7DE0789F1C130D047D1F181E0CB
:100F000080933E0180933F01C801DF91CF911F91F3
:100F10000F91FF900C942D07CE010E94A616F82E7B
:100F2000C5CFCE010E94CE16BE01C2CFCC3380E722
:100F3000D80709F49AC0CD33D04709F7F801828168
:100F4000882309F4B9C010923F010E941B199093A5
:100F50003D0180933C0180E295C0F80182818111BE
:100F60000E94310780E0DF91CF911F910F91FF9098
:100F70000895F80182818823A9F380912502816078
:100F800080932502EFCFF8018281882309F4BCCF3A
:100F90000E947C18811102C00E9462180E94991858
:100FA00090E09093580280935702FE01E350F0477F
:100FB000809157028160E231F10538F4E457FA4D2F
:100FC0000C943A2580915702826080935702809159
:100FD00057020E949D180E949E11C4CF8091570213
:100FE0008460F3CF809157028860EFCF80915702E1
:100FF0008061EBCF809157028062E7CF80915702EA
:101000008064E3CF809157028068DFCF80915702E0
:101010008C60DBCF809157028E7FD7CF80915702B3
:101020008D7FD3CF809157028B7FCFCF8091570296
:10103000877FCBCF809157028F7EC7CF8091570299
:101040008F7DC3CF809157028F7BBFCF8091570296
:101050008F77BBCF80915702837FB7CF9091570294
:10106000892F97FB87F98058B0CFF80182818823B8
:1010700061F010923E010E941B1990933D018093F4
:101080003C0182E00E94540F6DCF80913E0181119E
:101090000FC080913C0190913D010E942719883C2E
:1010A000910530F486E20E94290E86E20E94050F27
:1010B00082E00E945B0F56CF80913F0181110FC0EB
:1010C00080913C0190913D010E942719883C910537
:1010D00030F487E20E94290E87E20E94050F80E229
:1010E000E8CF0C94D50A0C94D70A0C942C070C94D6
:1010F00075080895972F70E02DE0929F600D711D87
:101100001124FB019BE5899FE00DF11D1124EE0FD9
:10111000FF1FE455FF4F859194910895FC01EE0F58
:10112000FF1FE45FF34F8591949108950E947A0820
:101130000E940A0A811520E4920708F08FC08115E9
:1011400040E3940708F0ECC0803E910508F073C0BE
:10115000803C910508F0D0C0883A910590F4853A1A
:10116000910508F0CEC08130910509F470C0009758
:1011700009F46DC08430910508F069C090E080E00A
:1011800008958D3B9105D0F7883A910509F403C184
:10119000893A910509F402C18A3A910509F401C11D
:1011A0008B3A910509F400C18C3A910509F4FFC00E
:1011B0008B3B910509F4FEC08C3B910509F4FDC001
:1011C0008D3A910509F4FCC0803B910509F4FBC000
:1011D0008E3A910509F4FAC08F3A910509F4F9C0E5
:1011E000813B910509F4F8C0823B910509F4F7C0F1
:1011F000833B910509F4F6C0843B910509F4F5C0E1
:10120000853B910509F4F4C0863B910509F4F3C0D0
:10121000873B910509F4F2C0883B910509F4F1C0C0
:10122000893B910509F4F0C08A3B910509F4EFC0B0
:1012300080E094E408958F3F910509F048F4803FE1
:10124000910508F069C0883E910508F097CF089590
:10125000811560E2960708F061C00895811573E575
:10126000970770F5811522E5920708F064C0811593
:1012700041E5940708F05AC0811560E5960708F427
:1012800052C09C0154E0369527955A95E1F7922F6C
:101290009370282F26952695237070E2279F900142
:1012A0001124392B837041E050E0BA0102C0660F6F
:1012B000771F8A95E2F7CB01822B932B9C680895C8
:1012C000811575E5970750F4811524E5920708F418
:1012D00043C0982F8827846F906A0895811546E54A
:1012E000940708F44DC09C0130569F702115304181
:1012F00008F044CF90620895805C91090E948E08A6
:101300000895853A910509F440C0863A910509F09F
:101310003FC082E890E40895906508959F70EECFF5
:101320009927906C08959F70906A0895982F882748
:10133000816F906A0895AC014370552721E030E039
:1013400002C0220F331F4A95E2F78695869570E218
:10135000879FC0011124B0CFAC014370552721E015
:1013600030E002C0220F331F4A95E2F7869586953A
:1013700040E2849FC0011124822B932B9A68089528
:10138000982F882788279F71B5CF81E890E408952A
:1013900083E890E4089582EE94E4089589EE94E45D
:1013A00008958AEE94E4089585EB94E4089586EB1D
:1013B00094E4089583EB94E4089584EB94E4089511
:1013C00087EB94E408958CEC94E408958DEC94E418
:1013D000089583E895E408958AE895E4089582E9FC
:1013E00095E4089584E995E4089581E296E40895EA
:1013F00083E296E4089584E296E4089585E296E413
:10140000089586E296E4089587E296E408958AE2D4
:1014100096E41DCF8238910549F1B0F481339105EE
:1014200009F462C048F48932910509F456C08A3241
:10143000910509F460C008958533910509F446C00B
:101440008933910599F00895833E910531F138F47F
:10145000803E910591F0823E9105B1F00895863E5F
:10146000910521F1873E910551F108952091570290
:101470002370D9F080EE90E008952091570220FF6C
:1014800014C089E390E008952091570222FF0DC017
:1014900024FD09C083EE90E008952091570222FDBB
:1014A00031C024FF02C090E080E0089520915702EF
:1014B00023FFFBCF24FDF7CF87EE90E00895209126
:1014C000570223FFEECF86EE90E008952091570259
:1014D00025FFEBCF89E290E008952091570225FF88
:1014E000E4CF85E390E008952091570226FFDDCFF9
:1014F0008AE290E008952091570226FFD6CF81E33B
:1015000090E0089582EE90E0089508950F931F9360
:10151000CF938C01FB018281811106C0C1E08C2F29
:10152000CF911F910F910895C0914D01C11125C018
:101530000531104799F70E94850A81E080934D019B
:101540000E941B1990934C0180934B011092400113
:1015500010924201109241011092440110924301F5
:1015600010924601109245011092480110924701D5
:1015700010924A0110924901D2CF80914B01909173
:101580004C010E942719883C910540F6809140014A
:10159000E82FF0E0EE0FFF1FEF5BFE4F118300839B
:1015A0008F5F80934001C0E0BACF0C9428070C9461
:1015B000290785B7806885BF85B7806885BFA0E2A9
:1015C000B1E061E070E08D91E82FE295EF70F0E01E
:1015D00041A18F709B0101C0220F8A95EAF7922FDB
:1015E0009095942391A382A1822B82A381E0A732BC
:1015F000B80749F7A3E1B1E061E070E08D91E82F11
:10160000E295EF70F0E041A18F709B0101C0220FC5
:101610008A95EAF7922F9095942391A382A1822B29
:1016200082A381E0A032B80749F7ECE5F1E0AEE42F
:10163000B1E08AE691E0119211921D921D928E17EF
:101640009F07C9F70C9471082F923F924F925F92B7
:101650006F927F928F929F92AF92BF92CF92DF92C2
:10166000EF92FF920F931F93CF93DF930EE411E05D
:1016700080E2C82E81E0D82E1801EE24E394F12CEC
:1016800066246394D1018D909D901D011E921E923F
:10169000E60189916E01E82FE295EF70F0E091A1EB
:1016A0008F70970101C0220F8A95EAF7892F822B4C
:1016B00081A382A1722E7094872182A3D0EADA9549
:1016C000F1F763E171E090E080E0EB015990BE0139
:1016D000452D42954F7050E0EA0148A0AD90BC9076
:1016E0001197552D5F70E70102C0CC0FDD1F5A9591
:1016F000E2F7AE01442109F059C0A701082E02C04B
:10170000440F551F0A94E2F74A295B2911965C930E
:101710004E9301968D309105C1F681A1782271A278
:1017200082A1282B22A38D919C918816990641F0C5
:1017300060926A010E941B1990936C0180936B0167
:10174000DCE52D16D1E03D0609F09CCF80916A01C1
:101750008823B1F080916B0190916C010E94271950
:10176000069770F0ECE5F1E0D8018D919D918D0127
:1017700081939193B1E00C351B07B1F710926A0188
:101780000E94730881E0DF91CF911F910F91FF902C
:10179000EF90DF90CF90BF90AF909F908F907F9011
:1017A0006F905F904F903F902F90089550E040E0F1
:1017B000ABCFE82FF0E0EE0FFF1FE45AFE4F808121
:1017C000918108950895882339F090E08A3010F4CB
:1017D0004D9608950697089587E290E00895E09168
:1017E0000001F091010180818093520281FF03C0CA
:1017F00081EE0E94050F8091520285FF03C085EEA5
:101800000E94050F8091520280FF03C080EE0E946B
:10181000050F8091520284FF03C084EE0E94050FE1
:101820008091520282FF03C082EE0E94050F8091D8
:10183000520286FF03C086EE0E94050F809152027D
:1018400083FF03C083EE0E94050F8091520287FF41
:1018500003C087EE0E94050F80916D01813089F0F1
:10186000882359F0823001F1843031F18FE39CE913
:101870000197F1F700C00000089582EE0E94290E42
:10188000F5CF80EE0E94290E81EE0E94290E88E19C
:101890000E94290E88E10E94050F81EE0E94050F2B
:1018A00080EE0E94050FE2CF82EE0E94290E87E5AE
:1018B0000E94290E87E5F5CF86EE0E94290E86EE5E
:1018C0000E94050F88E10E94290E88E1EACF8091ED
:1018D0006D01813009F43FC0882311F0823019F482
:1018E00082EE0E94050F8091520281FF03C081EEBB
:1018F0000E94290E8091520285FF03C085EE0E944E
:10190000290E8091520280FF03C080EE0E94290EB2
:101910008091520284FF03C084EE0E94290E8091C0
:10192000520282FF03C082EE0E94290E8091520271
:1019300086FF03C086EE0E94290E8091520283FF2B
:1019400003C083EE0E94290E8091520287FF08C0D7
:1019500087EE0C94290E8CE20E94290E8CE2C1CFF6
:101960000895EF92FF921F93CF93DF937C01CCE019
:10197000D0E0C7010C2E02C0969587950A94E2F735
:10198000182F1F70812F0E94E30B0E94290E812FB8
:101990000E94E30B0E94050F2497CC3F8FEFD807DE
:1019A00041F7DF91CF911F91FF90EF900895CF9372
:1019B000DF93EC01C13080E8D80760F0FB01828141
:1019C000882341F00E94EF0BCE019F770E94B10C5B
:1019D0000E94670C81E0DF91CF910895909373018D
:1019E000809372010895E0917201F0917301309734
:1019F00021F00190F081E02D099480E00895E091BC
:101A00007201F0917301309721F00280F381E02D93
:101A100009940895E0917201F0917301309721F0DB
:101A20000480F581E02D0994089520917001309192
:101A300071012817390771F090937101809370013B
:101A4000E0917201F0917301309721F00680F781E7
:101A5000E02D0994089520916E0130916F012817AF
:101A6000390771F090936F0180936E01E0917201DC
:101A7000F0917301309721F00084F185E02D0994F5
:101A8000089508950C94410D0E9412190E94D90ADC
:101A90000C94E1197F928F929F92AF92BF92CF9256
:101AA000DF92EF92FF920F931F93CF93DF93CDB707
:101AB000DEB72A970FB6F894DEBF0FBECDBF0E94E7
:101AC000240B95E7A92E91E0B92E10E000E08824C0
:101AD0008394912C702E802F0E94D90B7C01F501EC
:101AE000C190D1905F01C816D90609F45DC08091FC
:101AF000250281FD0E94E20B96012E253F2590E0F4
:101B000080E06401082E02C0CC0CDD1C0A94E2F7D0
:101B1000A60142235323452B09F441C08E837F82C3
:101B2000EC20FD2081E0EF2809F480E088870E9406
:101B30001B198160782F9A8789874E815F8168851C
:101B40008A850E94FF0D000F111FF801EB58FE4F10
:101B500080819181C826D926D182C0820E945F1CD3
:101B60000E94F30C909174018917A9F10E94F30C63
:101B7000809374012A960FB6F894DEBF0FBECDBFD6
:101B8000DF91CF911F910F91FF90EF90DF90CF9059
:101B9000BF90AF909F908F907F900C9477080196A4
:101BA0008D30910509F0ADCF0F5F1F4F0730110544
:101BB00009F090CF8FEF89838A831B820E941B19C3
:101BC0008160782F9D838C8349815A816B818D81BF
:101BD0000E94FF0DC3CF2A960FB6F894DEBF0FBE4A
:101BE000CDBFDF91CF911F910F91FF90EF90DF90CC
:101BF000CF90BF90AF909F908F907F900895CF939C
:101C0000DF93CDB7DEB72B970FB6F894DEBF0FBECC
:101C1000CDBF4F83588769877A878B871E821D8245
:101C200085E0FE013796DE01119601900D928A95AE
:101C3000E1F749815A816B817C818D819E812B9650
:101C40000FB6F894DEBF0FBECDBFDF91CF910C94DD
:101C50002E14882309F4D8C0823871F40E94F30C42
:101C600081FDD2C089E30E946E170E94331889E378
:101C70000E94AB170C943318833859F40E94F30C6C
:101C800080FDC2C083E50E946E170E94331883E571
:101C9000EFCF843859F40E94F30C82FDB5C087E47D
:101CA0000E946E170E94331887E4E2CF9CEF980FD2
:101CB000913A18F40E946E17DDCF90E2980F983099
:101CC00050F4877091E001C0990F8A95EAF7892F47
:101CD0000E94ED17CFCF9BE5980F933070F4853AB3
:101CE00031F0863A39F083E890E00C94150D81E8E4
:101CF00090E0FBCF82E890E0F8CF98E5980F95311F
:101D000008F082C0883A09F440C0893A09F440C01A
:101D10008A3A09F440C08B3A09F440C08C3A09F47D
:101D200040C08B3B09F440C08C3B09F440C08D3A65
:101D300009F440C0803B09F440C08E3A09F440C029
:101D40008F3A09F440C0813B09F440C0823B09F45A
:101D500040C0833B09F440C0843B09F440C0853B4C
:101D600009F440C0863B09F440C0873B09F440C0F9
:101D7000883B09F440C0893B09F440C08A3B09F420
:101D800040C090E080E00C942B0D82EE90E0FBCF01
:101D900089EE90E0F8CF8AEE90E0F5CF85EB90E009
:101DA000F2CF86EB90E0EFCF83EB90E0ECCF84EBCB
:101DB00090E0E9CF87EB90E0E6CF8CEC90E0E3CFCA
:101DC0008DEC90E0E0CF83E891E0DDCF8AE891E010
:101DD000DACF82E991E0D7CF84E991E0D4CF81E2F4
:101DE00092E0D1CF83E292E0CECF84E292E0CBCFFB
:101DF00085E292E0C8CF86E292E0C5CF87E292E02A
:101E0000C2CF8AE292E0BFCF0895882309F44BC085
:101E1000823871F40E94F30C81FF45C089E30E946F
:101E20006E170E94331889E30E94AB170C94331885
:101E3000833859F40E94F30C80FF35C083E50E947B
:101E40006E170E94331883E5EFCF843859F40E944F
:101E5000F30C82FF28C087E40E946E170E9433189B
:101E600087E4E2CF9CEF980F913AF0F290E2980F5E
:101E7000983050F4877091E001C0990F8A95EAF785
:101E8000892F0E94F317D2CF9BE5980F933020F44F
:101E900090E080E00C94150D885A853120F490E094
:101EA00080E00C942B0D0895882321F00E94ED17FB
:101EB0000C9433180895882321F00E94F3170C9492
:101EC000331808958F929F92AF92BF92DF92EF9254
:101ED000FF920F931F93CF93DF937C01D62FC72FD1
:101EE000FC01058102950F70128111110E940A18E0
:101EF0000E946717D82E882371F01123A1F080E289
:101F00008D0F883080F082E00E9451170E94671781
:101F100091E0D82ED926EC2FE295EF70F0E0E25652
:101F2000FA4D0C943A25D12CF6CF0C2F0F70C07FB0
:101F300011F00295007F1123A9F0002359F080E2EF
:101F40008D0F883010F0D11109C0802F0E94ED173D
:101F50000E9433188D2F0E94290E14C0802F0E94DA
:101F6000FD17F6CF8D2F0E94050F002359F080E258
:101F70008D0F883010F0D11124C0802F0E94F317EC
:101F80000E943318DD2009F48FC10E94441780FDA0
:101F90008BC1F70112820E943E170E94BE15C70135
:101FA0000E9460110E943E17DF91CF911F910F9107
:101FB000FF90EF90DF90BF90AF909F908F900C9428
:101FC000DF15802F0E940318DBCFFC2FFF70BF2E80
:101FD000C07FC03219F0B29480EFB822DD2369F0DF
:101FE000D13029F1112369F1002359F0F7018581DE
:101FF00080FFB0CF8F70858304C0112361F0011181
:1020000004C08B2D0E94540FBDCF8B2D0130D1F712
:102010000E941D18B7CF011106C00E9420188B2DF9
:102020000E945B0FAFCF013009F4ACCFF6CF112384
:1020300021F0063008F0A6CFE4CF053008F0A2CF9B
:10204000EECF002361F38D2F0E94050F9BCF8C2FC5
:1020500086958695837069F0813009F093CF8D2F36
:102060009C2F9370111102C090E080E00E942B0D14
:1020700089CF8D2F9C2F9370111102C090E080E0CA
:102080000E94150D7FCF8D2F112329F00E946D1B0B
:102090000E94541C77CF0E94D51BFACF8C2F8370DF
:1020A00009F047C011116ECF2D2F2295269527706C
:1020B000220F220F6D2F6F70862E912CB12CA12C28
:1020C000022E04C0880C991CAA1CBB1C0A94D2F7CF
:1020D00060E070E0CB01D4FF0FC06FE070E080E003
:1020E00090E004C0660F771F881F991F2A95D2F7CA
:1020F0006095709580959095C695C695C370C230D1
:1021000051F080F4682979298A299B29C13071F01E
:102110000E94671537CF682979298A299B290E944F
:10212000831530CF0E946715C501B4010E944B157D
:1021300029CF8695112311F08C2F8170882309F403
:1021400021CF2D2F229526952770220F220F6D2F3C
:102150006F70862E912CB12CA12C022E04C0880CFD
:10216000991CAA1CBB1C0A94D2F760E070E0CB015A
:10217000D4FF0FC06FE070E080E090E004C0660F15
:10218000771F881F991F2A95D2F7609570958095C3
:102190009095C695C695C370C23051F080F46829F9
:1021A00079298A299B29C13071F00E944116EACE13
:1021B000682979298A299B290E945D16E3CE0E940D
:1021C0004116C501B4010E942516DCCEE0E2ED0FF8
:1021D000E53108F04DC0F0E0E255FA4D0C943A2597
:1021E000DF708C2F8F71112321F00E94BE158D2F6F
:1021F00009CF0E94DF158D2F13CF112341F0053039
:1022000008F0C0CE8C2F8F710E940416BBCE063012
:1022100008F0B8CEF7CF8C2F8F71112339F00E94C0
:10222000BE15B0CE8C2F8F711123C9F30E94DF151C
:10223000A9CE112329F08C2F8F710E94A915A2CE4F
:102240000E949F159FCE112349F0CF718C2F0E94C1
:10225000BE1563E08C2F0E94481794CE81E00E9447
:102260005117023008F48ECE82E00E9451178ACEB8
:10227000112329F001116ECE8C2F8F71D0CF011157
:10228000E2CE8C2F8F71D2CF4C2F4F706D2FC701A4
:102290000E9425070E94C81475CE4C2F4F706D2FD9
:1022A000C7010E9479086ECEDF91CF911F910F91E7
:1022B000FF90EF90DF90BF90AF909F908F90089528
:1022C0000F931F93CF93DF93EC018B819C81892B1C
:1022D00029F08881998189238F3F29F4DF91CF915B
:1022E0001F910F910895CE010E943E078823B1F3FC
:1022F000688179818A810E941A178C010E9479165F
:102300000E944015B801CE01DF91CF911F910F912E
:102310000C94620F0E940A180E941A180E94DF177C
:102320000E9433180E94001D0E94541C90E080E01F
:102330000E94150D90E080E00C942B0D0E94FA177E
:102340000C948A110E941017E92FE295EF70E25069
:10235000EE3070F4F0E0ED53FA4D0C943A25803FE6
:1023600019F020F4803E20F481E00895843FE1F3E9
:1023700080E00895803EC0F3813FD1F7F5CF93FB15
:10238000882780F90895CF93DF9300D000D00F9273
:10239000CDB7DEB70F900F900F900F900F90DF9199
:1023A000CF910895CF93DF9300D000D000D0CDB768
:1023B000DEB726960FB6F894DEBF0FBECDBFDF9115
:1023C000CF9108951F93CF93DF93C091840116E0BE
:1023D000809185018C1304C0DF91CF911F910895E6
:1023E000D0E01C9FF0011D9FF00D1124EA57FE4F15
:1023F0004081518162817381848195810E94D211D3
:102400002196C770E5CF4091B6015091B701609118
:10241000B8017091B9018091BA019091BB010C94FF
:10242000D2111F93CF93DF938091BB01807FC1F4C2
:102430008091B8018823A1F080918401C091850129
:102440006091B6017091B7014091B9015091BA0104
:10245000D62FD723DA01A095B09516E0C81304C093
:10246000DF91CF911F91089590E04115510511F032
:10247000DF3F31F401968770F1CF2A0F3B1F17C061
:10248000189FF001199FF00D1124EA57FE4F21818A
:102490002713F0CF20812613EDCF22812111EACF1F
:1024A000238134812417350740F3241B350B283C46
:1024B000310500F72091BB012F7020612093BB01F3
:1024C00026E0289FF001299FF00D1124E557FE4FCB
:1024D00080818F708061808386EB91E00E94601123
:1024E000DF91CF911F910C94E211BF92CF92DF92B6
:1024F000EF92FF920F931F93CF93DF93CDB7DEB789
:1025000061970FB6F894DEBF0FBECDBF8C0185E09A
:10251000F801DE011D9601900D928A95E1F7D80130
:102520004C9111965C9111971296EC9012978091B4
:10253000B9019091BA01009709F47FC12091B601C9
:102540003091B701622F63236F3F09F476C1139670
:10255000CD90DC90B090B801BB2009F413C1C8162F
:10256000D906D0F1F601E81BF90BCF01FF24F39453
:10257000883C910508F0F12C8091BB01982F907F49
:10258000FF2009F4B6C091117FC0FE2C351329C07D
:10259000241327C0E11025C08F7080618093BB0198
:1025A0000E94031286EB91E00E9460118091BB01B2
:1025B000D80115968C938F2D61960FB6F894DEBFD7
:1025C0000FBECDBFDF91CF911F910F91FF90EF9084
:1025D000DF90CF90BF900895809590958C0D9D1DB4
:1025E000C5CFCD2829F0852F84238F3F09F033C133
:1025F00080E0B82FB170DB2E80FF3CC08091840159
:102600002091850136E0821315C04D875E878D8548
:102610009E850E941017292F22952F702230F0F0EE
:10262000243018F59F70F1F0F8019581907FD1F476
:10263000D12C1EC090E0389FF001399FF00D11247D
:10264000EA57FE4F6181651306C06081641303C0C1
:102650006281E6120FC001968770D5CF9F7011F08E
:10266000882331F3805E883018F3C8010E9460111E
:10267000FD2CA1CFEE2009F49ECF8091BB0181609B
:102680008093BB01F12C97CF351306C0241304C0EF
:10269000D801EE2009F49CC04D875E878D859E850C
:1026A0000E94A211882309F4D2C0EE2009F4CFC001
:1026B0008091BB01803270F02091B6013091B7015A
:1026C00038872F831986DB86CA868C87CE010796CA
:1026D0000E94601186E0F801A6EBB1E001900D9236
:1026E0008A95E1F70E9411120E940312FF24F394CD
:1026F00062CF911115C07C2DD98AC88A6E2D898927
:102700000E94C31186EB91E00E94601186E0E6EB27
:10271000F1E0DF011D928A95E9F70E9403124BCF89
:10272000351312C0241310C0E1100EC0F8018583C8
:10273000C8010E946011E6EBF1E086E0DF011D9226
:102740008A95E9F7FB2C37CF4D875E878D859E856F
:102750000E94A211882309F47AC0EE2009F477C000
:102760008091BB01803208F4B5CF2091B601309141
:10277000B7013A8329831B82DD82CC828E83CE010E
:102780000196A6CFC816D90688F1F601E81BF90B09
:10279000CF01F12C883C910508F047C0FE2CEE20BB
:1027A00009F455C0351330C024132EC08091BB01ED
:1027B00080FD21C0982F907FF1F0D80115968C9361
:1027C0001597903F39F0982F907F905F8F70892BED
:1027D00015968C93C8010E94601186E0F801A6EB63
:1027E000B1E001900D928A95E1F797CF8095909591
:1027F0008C0D9D1DCECF86E0F801A6EBB1E00190D7
:102800000D928A95E1F7D7CE4D875E878D859E859F
:102810000E94A21181115ECF8091BB0181608093E3
:10282000BB01C8010E946011C6CE7C2DD98AC88A1E
:102830006E2D89890E94C31169CFEE2041F04D872A
:102840005E878D859E850E94A211811143CFC801AC
:102850000E9460114BCF81E08E25CBCE1F93CF938A
:10286000DF93CDB7DEB72C970FB6F894DEBF0FBE5F
:10287000CDBF4F83588769877A878B879C87CE0126
:1028800007960E947512882369F08A859B85892B9B
:1028900039F04F815885842F85238F3F09F071C00F
:1028A00016E05FC086E0FE013796DE0111960190CA
:1028B0000D928A95E1F78A859B85892B89F38F8113
:1028C000988589238F3F61F32091850130E0C9010C
:1028D000019687709927409184014817190671F471
:1028E0000E949E11109285011092840186E0E6EB11
:1028F000F1E0DF011D928A95E9F7D2CF96E0929F31
:10290000D001939FB00D1124AA57BE4FFE013196FE
:1029100001900D929A95E1F7809385010E94E21152
:10292000BFCF819FC00111248A579E4F0E9475120C
:102930008823E9F0E09184011E9FF0011124EA57F9
:10294000FE4F4081518162817381848195810E9413
:10295000D2118091840190E001968770992780932D
:10296000840180918401909185018913DACF2C969E
:102970000FB6F894DEBF0FBECDBFDF91CF911F9190
:10298000089569857A858B859C850E94D21188CFB0
:10299000EF92FF920F931F93CF93DF938C01892BBC
:1029A00081F0F12CEE24E394E8012196F801849162
:1029B000843770F4843008F05FC08130B1F0823029
:1029C000A1F1DF91CF911F910F91FF90EF900895AA
:1029D000853709F44CC008F43DC09CE7980F903748
:1029E00080F78F770E94050F49C00E5F1F4FFE01D1
:1029F000849190E2980F983060F48770FE2D01C0AA
:102A0000FF0F8A95EAF78F2F0E940D180E94331846
:102A100002C00E94290E8F2D815030F2EFE9FFE0B5
:102A20003197F1F700C00000F7CF0E5F1F4FFE0196
:102A3000849190E2980F983050F48770FE2D01C079
:102A4000FF0F8A95EAF78F2F0E941318DFCF0E949D
:102A5000050FE1CF0E5F1F4FFE01C491C150D8F2A8
:102A60008FE99FE00197F1F700C00000F7CF0E5FFC
:102A70001F4FFE01F490CFCF0E94290E8E01CBCFC5
:102A800008956093FC017093FD018093FE01909383
:102A9000FF010C948A110F931F930091FC01109178
:102AA000FD012091FE013091FF01DC01CB01802B63
:102AB000912BA22BB32B8093FC019093FD01A0934B
:102AC000FE01B093FF011F910F910C948A110F9397
:102AD0001F930091FC011091FD012091FE013091A6
:102AE000FF01DC01CB0180239123A223B323809338
:102AF000FC019093FD01A093FE01B093FF011F9193
:102B00000F910C948A110F931F930091FC01109167
:102B1000FD012091FE013091FF01DC01CB018027F6
:102B20009127A227B3278093FC019093FD01A093E6
:102B3000FE01B093FF011F910F910C948A11109226
:102B4000F8011092F9011092FA011092FB010C9415
:102B50008A1141E050E060E070E004C0440F551F6E
:102B6000661F771F8A95D2F74093F8015093F901B9
:102B70006093FA017093FB010C948A1141E050E0DC
:102B800060E070E004C0440F551F661F771F8A95F0
:102B9000D2F78091F8019091F901A091FA01B091DA
:102BA000FB01842B952BA62BB72B8093F8019093D8
:102BB000F901A093FA01B093FB010C948A1141E052
:102BC00050E060E070E004C0440F551F661F771F9F
:102BD0008A95D2F740955095609570958091F8014F
:102BE0009091F901A091FA01B091FB018423952302
:102BF000A623B7238093F8019093F901A093FA01DB
:102C0000B093FB010C948A1141E050E060E070E069
:102C100004C0440F551F661F771F8A95D2F7809115
:102C2000F8019091F901A091FA01B091FB0184277C
:102C30009527A627B7278093F8019093F901A093D1
:102C4000FA01B093FB010C948A110F931F9300912A
:102C5000F8011091F9012091FA013091FB01DC019A
:102C6000CB01802B912BA22BB32B8093F801909357
:102C7000F901A093FA01B093FB011F910F910C94FD
:102C80008A110F931F930091F8011091F90120917F
:102C9000FA013091FB01DC01CB0180239123A223B7
:102CA000B3238093F8019093F901A093FA01B093B4
:102CB000FB011F910F910C948A110F931F930091A8
:102CC000F8011091F9012091FA013091FB01DC012A
:102CD000CB0180279127A227B3278093F8019093F7
:102CE000F901A093FA01B093FB011F910F910C948D
:102CF0008A1108952DE0929F800D1124982F9770CE
:102D000041E001C0440F9A95EAF78695869586952D
:102D100095E0899FF0011124E454FE4F90E080E09B
:102D200070E05191DF0111979B01082E02C036958A
:102D300027950A94E2F7217021952527242325273A
:102D40002C9301968530910561F708952DE0929FAF
:102D5000800D1124982F977086958695869525E08D
:102D6000829FF0011124E454FE4F50E040E080E0E7
:102D7000219130E0092E02C0369527950A94E2F79A
:102D800021703327042E01C0220F0A94EAF7822B08
:102D90004F5F5F4F4530510559F70895BF92CF926D
:102DA000DF92EF92FF920F931F93CF93DF938C01EB
:102DB000C090F801D090F901E090FA01F090FB0189
:102DC0008091FC019091FD01A091FE01B091FF0165
:102DD000C82AD92AEA2AFB2ACFE1D0E0BC2ED701A3
:102DE000C6010C2E04C0B695A795979587950A94B1
:102DF000D2F780FD0EC0219788F7B12C8B2DDF9183
:102E0000CF911F910F91FF90EF90DF90CF90BF90E7
:102E10000895B8018C2F0E949608019761F3EECFB8
:102E2000CF93DF93EC010E94CE16BE01DF91CF91CC
:102E30000C9496081F93CF93DF93EB01909183013D
:102E4000992331F0CB01DF91CF911F910C94101792
:102E5000882379F0CB010E94CE16182F682FCE015F
:102E60000E947A16BE01812FDF91CF911F910C94A1
:102E70009608CB010E94A616182FF4CF809100026D
:102E800085958595859508958091000287700895B0
:102E900098E0899F90011124622B609300020C94AA
:102EA000BE15909100028095892380930002282FFF
:102EB000277061F4282F082E000C330B921713068D
:102EC00029F08595859585950C94DF150895909149
:102ED0000002977081E009F480E00895909112015A
:102EE0009923E1F09091570297FF18C0E82FE695DB
:102EF000E695E695EF3139F120910001309101011D
:102F0000E20FF32FF11D877021E030E001C0220FA6
:102F10008A95EAF78181822B8183089520910001AF
:102F200030910101F90132969FEF40E051918517F0
:102F300051F09F3F19F4511101C0942F4F5F4E3152
:102F4000A9F79F3F09F40895290F311D97FD3A9580
:102F5000F90182830895909112019923F1F09091E3
:102F6000570297FF1AC0E82FE695E695E695EF31F0
:102F700029F12091000130910101E20FF32FF11DA1
:102F8000282F277081E090E001C0880F2A95EAF78A
:102F9000809591818923818308952091000130914A
:102FA0000101F9013296205E3F4F9191891303C0D0
:102FB000DF0111971C92E217F307B9F7089581E03A
:102FC00090E0E0910001F0910101E80FF91F1082FB
:102FD000019680329105A9F7089590912402892BDA
:102FE00080932402089580959091240298239093D1
:102FF0002402089510922402089590912302892BAF
:1030000080932302089580959091230298239093B2
:103010002302089510922302089590912202892B91
:103020008093220208958095909122029823909394
:1030300022020895109222020895809301020895B9
:103040001092010208952091000130910101F901CF
:103050003196205E3F4F80E0919191118F5FE21792
:10306000F307D1F70895E0910001F09101018091FB
:1030700024028083E0910001F09101018081909110
:103080002302892B8083E0910001F091010180816E
:1030900090912202892B808390910102992361F003
:1030A000E0910001F09101018081892B80830E94D1
:1030B0002318811110920102809100019091010169
:1030C0000C94FF0C6DEE7EEF90E080E00E94742582
:1030D00060E082E090E00E94622560E083E090E0A2
:1030E0000E94622560E084E090E00E94622560E03A
:1030F00085E090E00C94622590E080E00E945C25E1
:1031000021E08D3E9E4F09F020E0822F089582E05D
:1031100090E00C945425682F82E090E00C94622596
:1031200083E090E00C945425682F83E090E00C94A9
:10313000622584E090E00C945425682F84E090E0B0
:103140000C94622580915D02843039F11092260240
:1031500088E190E020E40FB6F894A8958093600091
:103160000FBE2093600080E00E94770883B7817FC4
:10317000846083BF83B7816083BF7894889583B769
:103180008E7F83BF0FB6F894A89580916000886108
:1031900080936000109260000FBE08950895089516
:1031A000CF930E94CE180E94240B0E94CF18C0E03B
:1031B0008C2F0E94D90B892B31F4CF5FC730C1F718
:1031C00080E0CF91089581E0FCCF0E949E110E9483
:1031D000F30C0C9477081F921FB61F9211248F9343
:1031E0009F93AF93BF9380912602811113C080916A
:1031F000530290915402A0915502B091560241960B
:10320000A11DB11D8093530290935402A0935502C7
:10321000B0935602BF91AF919F918F911F901FBEA7
:103220001F90189582E084BD93E095BD9AEF97BDFD
:1032300080936E0008952FB7F89480915302909177
:103240005402A0915502B09156022FBF0895CF921B
:10325000DF92EF92FF920F931F932FB7F894409154
:1032600053025091540260915502709156022FBF43
:103270006A017B01EE24FF248C0130E020E0C016BF
:10328000D106E206F30650F0481B590BCA011F9104
:103290000F91FF90EF90DF90CF900895415051092A
:1032A000F3CF1F921FB61F9211248F939F93AF935A
:1032B000BF938091530290915402A0915502B09116
:1032C00056020196A11DB11D8093530290935402A2
:1032D000A0935502B0935602BF91AF919F918F91E9
:1032E0001F901FBE1F9018950E94FC20F8942FEF8E
:1032F00087EA91E6215080409040E1F700C000004D
:1033000087E090EBDC018093660290936702A093C4
:103310006802B093690288E19CE00FB6F894A89522
:10332000809360000FBE90936000FFCFAF92BF927A
:10333000CF92DF92EF92FF920F931F93CF93C0E053
:10334000CC24C394D12CE82EF12C8C2F0E94D90BC5
:103350005C0110E000E0C601002E02C0880F991F3A
:103360000A94E2F78A219B21892B99F40F5F1F4F62
:103370000D30110581F7CF5FC73039F780E0CF916D
:103380001F910F91FF90EF90DF90CF90BF90AF9083
:103390000895602F7C2F80E00E947A08E816F906D5
:1033A00029F781E0ECCFCF93C82F8CE20E949619C9
:1033B000882321F08C2FCF910C94961980E0CF9127
:1033C0000895CF930E947C18811102C00E94621858
:1033D000C5E608C00E94240B8FE39CE90197F1F732
:1033E00000C00000C150B1F789E20E94D3198111D9
:1033F000EFC08AE20E94D31981110E94621885E011
:103400000E94D31981110E9474190E948718809319
:10341000250287E00E94D319882371F08BE10E9476
:10342000D319882309F4B1C090912502892F8D7F8B
:1034300091FF826080932502809125020E948B1863
:103440000E94991890E0909358028093570280EE62
:103450000E94D319882341F090915702892F8E7FC3
:1034600090FF81608093570289E30E94D3198823DB
:1034700041F090915702892F8D7F91FF8260809358
:10348000570282EE0E94D319882341F0909157028F
:10349000892F8B7F92FF84608093570286EE0E9473
:1034A000D319882341F090915702892F877F93FF8A
:1034B00088608093570283EE0E94D319882341F0DD
:1034C00090915702892F8F7E94FF806180935702DD
:1034D00085E30E94D319882341F090915702892FE8
:1034E0008F7D95FF80628093570281E30E94D319FC
:1034F000882341F090915702892F8F7B96FF80643B
:103500008093570281E10E94D319882341F0909162
:103510005702892F97FB87F9805880935702809133
:1035200057020E949D1887E20E94D319C82F8EE18E
:103530000E94D3198111C2608FE10E94D3198111B9
:10354000C46080E20E94D3198111C86081E20E94A8
:10355000D3198111C06182E20E94D3198111C06226
:1035600083E20E94D3198111C06484E20E94D319BE
:10357000882341F1C0688C2F0E9494186C2F70E052
:1035800090E080E0CF910C9441158EE00E94D31919
:10359000882339F090912502892F8B7F92FF8460D8
:1035A00049CF80E10E94D31990912502882329F008
:1035B000892F877F93FF88603DCF892F8E7F90FF73
:1035C000816038CFC111D7CF0E949018682FD7CF14
:1035D000CF9108958091290280FF12C0609105016A
:1035E00085E0689FB001112475956795759567957D
:1035F00060387105A8F561157105A1F1862F089550
:1036000081FF09C06091050185E0689FB001112428
:1036100075956795EDCF6091050182FD0AC0809197
:103620002A028823D1F09091040160910501891745
:1036300028F085E0689FB0011124DACF869FB001A1
:10364000112485E0869F9001879F300D1124692FFA
:1036500070E0C9010E942625CBCF65E070E0CECF97
:103660008FE7089581E008958091290280FF0CC0C2
:103670006091030170E07595679575956795611583
:10368000710549F1862F089581FF06C060910301FD
:1036900070E075956795F3CF6091030182FD0BC0D3
:1036A00090912A029923A1F0609102018091030177
:1036B000961738F0682F70E06038710500F38FE7D7
:1036C0000895899FC001112470E00E942625F4CF3F
:1036D00061E070E0D7CF81E00895803F31F40E942F
:1036E000EA1A819580932D020895813F19F40E9472
:1036F000EA1AF8CF823F31F40E94EA1A819580934A
:103700002C020895833F19F40E94EA1AF8CF893FEA
:1037100029F40E94341B80932E0208958A3F21F4DD
:103720000E94341B8195F7CF8B3F31F40E94341BEC
:10373000819580932F0208958C3F19F40E94341BC9
:10374000F8CF843F31F480912B02816080932B026B
:103750000895853F21F480912B028260F7CF863F48
:1037600021F480912B028460F1CF873F21F4809176
:103770002B028860EBCF883F21F480912B0280617F
:10378000E5CF8D3F31F48091290281608093290239
:1037900008958E3F21F4809129028260F7CF8F3FF8
:1037A000B9F7809129028460F1CF90912C02803F7B
:1037B00041F480912D0287FD10922D02992371F022
:1037C0000895813F29F480912D021816ACF3F6CFAD
:1037D000823F81F497FFF2CF10922C0280912D024C
:1037E00090912E02892B90912F02892B49F71092EC
:1037F0002A020895833F19F4191674F3DFCF893F25
:1038000039F480912E021816CCF610922E02D6CFE3
:103810008A3F29F480912E0287FFD0CFF6CF8B3FCD
:1038200039F480912F0287FFC9CF10922F02C6CFA3
:103830008C3F29F480912F021816BCF3BFCF843F30
:1038400031F480912B028E7F80932B02B7CF853F7E
:1038500021F480912B028D7FF7CF863F21F4809158
:103860002B028B7FF1CF873F21F480912B02877F42
:10387000EBCF883F21F480912B028F7EE5CF8D3FE7
:1038800031F4809129028E7F8093290297CF8E3F59
:1038900021F4809129028D7FF7CF8F3F09F08ECFE1
:1038A000809129028B7FF0CF8BE292E00E940A0D7B
:1038B0000E941B19909328028093270208951F935A
:1038C000CF93DF9380912702909128020E942719BD
:1038D000AC0190912A022091060130E0911106C0BE
:1038E000209107018AE0289F900111244217530775
:1038F00078F020912C02C0912D02D0912E021091CF
:103900002F02211109C08C2F8D2B812B09F074C03F
:10391000DF91CF911F9108959F3F19F09F5F909382
:103920002A02121624F40E94EA1A80932C02809133
:103930002C0287FF05C00E94EA1A819580932C0211
:103940001C1624F40E94EA1A80932D0280912D0205
:1039500087FF05C00E94EA1A819580932D0260912D
:103960002C02662331F1C0912D02CC2311F1062ED9
:10397000000C770B880B990B0E942D2423E333E373
:1039800043E35FE30E9491240E94F52360932C029D
:103990006C2FCC0F770B880B990B0E942D2423E3FF
:1039A00033E343E35FE30E9491240E94F523609395
:1039B0002D021D1624F40E94341B80932E02809148
:1039C0002E0287FF05C00E94341B819580932E0232
:1039D000111624F40E94341B80932F0280912F0231
:1039E00087FF05C00E94341B819580932F02DF91D1
:1039F000CF911F910C94541C9F3F09F08FCFA0CF03
:103A000085E0EBE2F2E0DF011D928A95E9F7109282
:103A10002A02109229020895809150020895CF93AE
:103A2000DF9300D00F92CDB7DEB79C0180915D028D
:103A3000843019F593E099833B832A839093E900BE
:103A40008FEF9091E800815095FD06C095ED9A9515
:103A5000F1F700008111F5CF8091E80085FF0DC0DE
:103A600050E040E063E070E0CE0101960E946C1FE0
:103A70008091E8008E778093E8000F900F900F9070
:103A8000DF91CF910895CF93DF9300D00F92CDB700
:103A9000DEB720915D02243031F522E02983805881
:103AA00091099B838A8383E08093E9008FEF909153
:103AB000E800815095FD06C095ED9A95F1F700005C
:103AC0008111F5CF8091E80085FF0DC050E040E006
:103AD00063E070E0CE0101960E946C1F8091E800C7
:103AE0008E778093E8000F900F900F90DF91CF9129
:103AF00008959C0180915D028430F9F482E0809306
:103B0000E9009FEF8091E800915085FD06C085EDAA
:103B10008A95F1F700009111F5CF8091E80085FFBB
:103B20000CC050E040E065E070E0C9010E946C1FED
:103B30008091E8008E778093E8000895CF93DF931B
:103B4000EC0180915D028430F1F49091120199238F
:103B5000E9F09091570297FF19C08093E9008FEF29
:103B60009091E800815095FD06C095E19A95F1F796
:103B700000008111F5CF8091E80050E040E060E264
:103B800070E085FD1AC0DF91CF91089581E08093A8
:103B9000E9008FEF9091E800815095FD06C095ED0A
:103BA0009A95F1F700008111F5CF8091E80085FF2B
:103BB000EACF50E040E068E070E0CE010E946C1F68
:103BC0008091E8008E778093E80080E2FE01A0E318
:103BD000B2E001900D928A95E1F7D5CF80915C0219
:103BE000811109C00E94FC200E9459218091E200AD
:103BF00084608093E200089510925C020895089515
:103C000008950C94E51842E061EC81E00E94782070
:103C100042E061EC82E00E94782042E061EC83E0C7
:103C20000E94782042E261EC84E00C94782080913C
:103C30005F02833009F455C030F4813071F1823075
:103C400009F491C008958A3009F47DC08B3009F4DD
:103C500063C0893009F044C080915E02813209F06E
:103C60003FC08091620290916302009711F0039728
:103C7000B9F58091E800877F8093E8008091E800A3
:103C800082FF2AC08091F100809350028091E80069
:103C90008B778093E8000C94AC2080915E02813A8F
:103CA000F9F48091E800877F8093E80080916202B8
:103CB00090916302892B61F460E280E392E070E00E
:103CC0000E94BB1F8091E8008B778093E8000895E5
:103CD00060E090E080E0F3CF80915D028111CECF73
:103CE000089580915E02813AD9F7809162029091A5
:103CF0006302892BA9F78091E800877F8093E80011
:103D00008091E80080FFFCCF809112018093F10048
:103D10008091E8008E77BDCF80915E02813201F7FD
:103D20008091620290916302892BD1F68091E80024
:103D3000877F8093E8000E94AC208091600280938E
:103D400012010C949E1180915E02813249F680919D
:103D5000E800877F8093E8000E94AC208091610298
:103D600080935102089580915E02813A09F0B8CFA4
:103D70008091E800877F8093E8008091E80080FFD1
:103D8000FCCF80915102C2CF84B7877F84BF0FB62A
:103D9000F894A895809160008861809360001092EB
:103DA00060000FBE80E880936100109261000E9465
:103DB000420D0E94FC200E9459218091E200846003
:103DC0008093E20078940E94DA230E94440D88E0F8
:103DD00091E00E94EE0C80915D02853019F00E9406
:103DE0004A0DF9CF0E94A21880915B02882399F3B3
:103DF0000E94D018882379F30E94561FECCF292FF8
:103E000033272330310521F168F42130310509F4DD
:103E100043C02230310509F444C090E080E030E036
:103E200020E026C02132310551F122323105A9F7B7
:103E3000643098F770E0FB01EE0FFF1FE55DFE4F69
:103E400020813181695D7E4FFB01808190E010C04F
:103E500099278130910581F0009729F00297E9F6C2
:103E6000ECE0FCE002C0E8E3FCE0849190E09F011C
:103E7000FA01318320830895E0E2FCE0F6CF64305C
:103E800060F6E62FF0E0EE0FFF1FED5CFE4F2081A5
:103E9000318189E090E0ECCF82E190E029EA3CE0DA
:103EA000E7CF8DE690E02CE33CE0E2CF80E189BDF6
:103EB00082E189BD09B400FEFDCF8091D8008F7DDD
:103EC0008093D8008091E00082608093E000809130
:103ED000E00081FDFCCF0895AF92BF92CF92DF92B8
:103EE000FF920F931F93CF93DF936C01EB018A0135
:103EF0000E94CB20F82E811123C00115110539F045
:103F0000F80180819181C81BD90BC80ED91EB12C34
:103F1000A12C2097A9F08091E80085FD22C0809116
:103F2000E8008E778093E80001151105A1F0F801F3
:103F300080819181A80EB91EB182A08285E0F82E01
:103F40008F2DDF91CF911F910F91FF90DF90CF9038
:103F5000BF90AF9008950E94CB208823D1F2F82E15
:103F6000EFCFF60181916F018093F1002197FFEF70
:103F7000AF1ABF0ACECFFC01809164029091650216
:103F800086179707A0F06115710529F49091E80054
:103F90009E779093E80090E06115710551F49111BE
:103FA00008C08091E80082FF34C080E00895BC0121
:103FB000F2CF80915D028823C1F18530C1F18091FB
:103FC000E80083FD30C08091E80082FDEACF809157
:103FD000E80080FFE1CF8091F3002091F200382FBC
:103FE0006115710519F02830310558F091E028303D
:103FF000310509F090E02091E8002E772093E80049
:10400000CBCF81918093F100615071092F5F3F4FB9
:10401000E7CF80915D02882341F0853041F08091A7
:10402000E80083FFBECF81E0089582E0089583E039
:104030000895FC01809164029091650286179707AC
:10404000A0F06115710529F48091E8008E778093C6
:10405000E80090E06115710551F4911108C080915C
:10406000E80082FF35C080E00895BC01F2CF809166
:104070005D028823C9F18530C9F18091E80083FD94
:1040800031C08091E80082FDEACF8091E80080FF96
:10409000E1CF8091F3002091F200382F6115710576
:1040A00019F02830310558F091E02830310509F039
:1040B00090E08091E8008E778093E800CBCF8491E8
:1040C0008093F1003196615071092F5F3F4FE6CF29
:1040D00080915D02882341F0853041F08091E800B5
:1040E00083FFBDCF81E0089582E0089583E00895C5
:1040F000982F973028F08F708093E90081E0089521
:104100009093E900242F762F50E0981731F07091AA
:10411000EC002091ED005091F00021FD02C09F5F66
:10412000E8CF3091EB003E7F3093EB003091ED0013
:104130003D7F3093ED003091EB0031603093EB0028
:104140007093EC002093ED005093F0002091EE006E
:1041500027FDE5CF80E0089580915E0287FF13C0C0
:104160008091E80082FF06C08091E8008B77809301
:10417000E80004C080915D028111F2CF0895809122
:104180005D028823D9F38091E80080FFF8CF809109
:10419000E8008E77ECCF2091E4003091E50095E6C1
:1041A000A9012091EC00822F817020FF06C0809130
:1041B000E80080FF06C080E008952091E80022FD1D
:1041C0001AC080915D02882389F0853089F0809142
:1041D000EB0085FD0FC02091E4003091E50042170F
:1041E0005307F9F29150E1F684E0089582E00895D2
:1041F00083E0089581E008950E946A210E9472215F
:10420000E0EEF0E0808181608083E8EDF0E0808185
:104210008F77808319BCA7EDB0E08C918E7F8C9353
:1042200080818F7E808310925C0208950F931F938C
:10423000CF93DF930E946A210E947221C8EDD0E0E3
:1042400088818F77888388818068888388818F7D43
:10425000888319BC10925D021092590210925B0281
:1042600010925A0200EE10E0F80180818B7F80836B
:1042700088818160888342E060E080E00E9478204D
:10428000E1EEF0E080818E7F8083E2EEF0E08081DD
:1042900081608083808188608083F80180818E7F47
:1042A0008083888180618883DF91CF911F910F91F6
:1042B0000895E8EDF0E080818F7E8083E7EDF0E007
:1042C00080818160808384E082BF81E080935C0292
:1042D0000C941621E8EDF0E080818E7F80831092AF
:1042E000E20008951092DA001092E10008951F9202
:1042F0000F920FB60F9211242F933F934F935F931A
:104300006F937F938F939F93AF93BF93EF93FF939D
:104310008091E10082FF0BC08091E20082FF07C024
:104320008091E1008B7F8093E1000E94D9238091EE
:10433000DA0080FF19C08091D80080FF15C08091FD
:10434000DA008E7F8093DA008091D90080FF96C0DA
:1043500080E189BD82E189BD09B400FEFDCF81E025
:1043600080935D020E94EE1D8091E10080FF19C0E4
:104370008091E20080FF15C08091E2008E7F8093E3
:10438000E2008091E20080618093E2008091D80099
:1043900080628093D80019BC85E080935D020E9402
:1043A000001E8091E10084FF2BC08091E20084FF19
:1043B00027C080E189BD82E189BD89B5982F9170C0
:1043C00080FFFBCF8091D8008F7D8093D8008091B3
:1043D000E1008F7E8093E1008091E2008F7E8093E8
:1043E000E2008091E20081608093E20080915902B6
:1043F000882309F449C084E080935D020E94011E75
:104400008091E10083FF29C08091E20083FF25C0F5
:104410008091E100877F8093E10082E080935D02DC
:10442000109259028091E1008E7F8093E10080918B
:10443000E2008E7F8093E2008091E20080618093B1
:10444000E20042E060E080E00E9478208091F0008D
:1044500088608093F0000E94FF1DFF91EF91BF9153
:10446000AF919F918F917F916F915F914F913F910C
:104470002F910F900FBE0F901F90189519BC10929E
:104480005D020E94FC1D70CF8091E30087FD93E0E8
:1044900090935D02B3CF1F920F920FB60F9211242B
:1044A0002F933F934F935F936F937F938F939F933C
:1044B000AF93BF93CF93DF93EF93FF93D091E90036
:1044C000DF708091EC00C82FC17080FDC0E81092B1
:1044D000E9008091F000877F8093F00078940E943B
:1044E0008F221092E9008091F00088608093F000A4
:1044F000CD2BCF70C093E900FF91EF91DF91CF9169
:10450000BF91AF919F918F917F916F915F914F91EB
:104510003F912F910F900FBE0F901F9018951F93F2
:10452000CF93DF93CDB7DEB7AA970FB6F894DEBF6F
:104530000FBECDBF8EE592E02091F100FC012193EA
:10454000CF01F2E086369F07B9F70E94171E8091CF
:10455000E80083FF16C180915E0290915F029A305D
:1045600008F00FC1E92FF0E0EF52FA4D0C943A2514
:10457000803881F0823809F004C1809162028F7026
:104580008093E9008091EB0085FB882780F91092E9
:10459000E90006C080915A0290915B0291118260FD
:1045A0009091E800977F9093E8008093F10010923B
:1045B000F1008091E8008E77E0C0882309F4CEC036
:1045C000823009F0DEC0809160028111D1C08091FB
:1045D00062028F7009F4D5C08093E9002091EB004E
:1045E00020FFC6C0933031F48091EB00806280934D
:1045F000EB00BEC09091EB0090619093EB0021E046
:1046000030E001C0220F8A95EAF72093EA00109269
:10461000EA008091EB008860EACF8111B2C010916E
:1046200060021F778091E3008078812B8093E30004
:104630008091E800877F8093E8000E94AC20809101
:10464000E80080FFFCCF8091E30080688093E30066
:1046500082E0111183E080935D0293C08058823024
:1046600008F08FC080916002909161028C3D23E040
:104670009207A1F583E08A838AE289834FB7F89491
:10468000DE01139620E03EE051E2E32FF0E050938C
:104690005700E49120FF03C0E295EF703F5FEF7099
:1046A0008E2F90E0EA30C0F0C7968D939D932F5FD8
:1046B000243159F74FBF8091E800877F8093E8004D
:1046C0006AE270E0CE0101960E94BB1F8091E80073
:1046D0008B778093E80055C0C096E7CFAE014F5F5F
:1046E0005F4F609162020E94FF1EBC01892B09F49A
:1046F00048C09091E800977F9093E80089819A8163
:104700000E941920E3CF8038E1F58091E800877F8F
:104710008093E800809159028093F1004ACF811183
:1047200030C090916002923060F58091E800877F00
:104730008093E800909359020E94AC208091590226
:10474000882311F084E005C08091E30087FDFACF53
:1047500081E080935D020E94031E13C0809160027D
:10476000813079F481E0933009F080E080935B023E
:104770001092E9008091E800877F8093E8000E9412
:10478000AC208091E80083FF0AC08091E800877F19
:104790008093E8008091EB0080628093EB00AA9602
:1047A0000FB6F894DEBF0FBECDBFDF91CF911F9142
:1047B00008950895CF9380915D028823A1F0C09160
:1047C000E900CF709091EC00892F817090FD80E816
:1047D000C82B1092E9008091E80083FD0E948F228F
:1047E000CF70C093E900CF9108950E94FC23689494
:1047F000B1110C948B2408950E94702488F09F5767
:1048000098F0B92F9927B751B0F0E1F0660F771FF4
:10481000881F991F1AF0BA95C9F714C0B13091F0EA
:104820000E948A24B1E008950C948A24672F782F7F
:104830008827B85F39F0B93FCCF3869577956795AF
:10484000B395D9F73EF490958095709561957F4F1B
:104850008F4F9F4F0895E89409C097FB3EF49095C1
:104860008095709561957F4F8F4F9F4F9923A9F049
:10487000F92F96E9BB279395F695879577956795D8
:10488000B795F111F8CFFAF4BB0F11F460FF1BC01C
:104890006F5F7F4F8F4F9F4F16C0882311F096E9AF
:1048A00011C0772321F09EE8872F762F05C066235D
:1048B00071F096E8862F70E060E02AF09A95660F16
:1048C000771F881FDAF7880F9695879597F90895CF
:1048D00057FD9058440F551F59F05F3F71F04795B1
:1048E000880F97FB991F61F09F3F79F08795089596
:1048F000121613061406551FF2CF4695F1DF08C0B5
:10490000161617061806991FF1CF869571056105D1
:1049100008940895E894BB2766277727CB0197F979
:1049200008950E94A4240C9415250E94072538F0B0
:104930000E940E2520F0952311F00C94FE240C9477
:10494000042511240C948B240E94682470F3959FF5
:10495000C1F3950F50E0551F629FF001729FBB2776
:10496000F00DB11D639FAA27F00DB11DAA1F649F12
:104970006627B00DA11D661F829F2227B00DA11DC5
:10498000621F739FB00DA11D621F839FA00D611D4B
:10499000221F749F3327A00D611D231F849F600D6C
:1049A000211D822F762F6A2F11249F5750409AF095
:1049B000F1F088234AF0EE0FFF1FBB1F661F771F21
:1049C000881F91505040A9F79E3F510580F00C94EC
:1049D000FE240C948B245F3FE4F3983ED4F3869539
:1049E00077956795B795F795E7959F5FC1F7FE2B8C
:1049F000880F911D9695879597F9089597F99F6768
:104A000080E870E060E008959FEF80EC0895002456
:104A10000A941616170618060906089500240A9423
:104A200012161306140605060895092E0394000CA9
:104A300011F4882352F0BB0F40F4BF2B11F460FF38
:104A400004C06F5F7F4F8F4F9F4F089597FB072ED6
:104A500016F4009407D077FD09D00E94402507FC8A
:104A600005D03EF4909581959F4F0895709561957E
:104A70007F4F0895EE0FFF1F0590F491E02D0994EC
:104A8000AA1BBB1B51E107C0AA1FBB1FA617B70774
:104A900010F0A61BB70B881F991F5A95A9F7809590
:104AA0009095BC01CD010895F999FECF92BD81BDCD
:104AB000F89A992780B50895A8E1B0E042E050E067
:104AC0000C947C25262FF999FECF92BD81BDF89AD2
:104AD000019700B4021639F01FBA20BD0FB6F89442
:104AE000FA9AF99A0FBE08950196272F0E9463251E
:104AF0000C946225DC01CB01FC01F999FECF06C0C4
:104B0000F2BDE1BDF89A319600B40D92415050408B
:104B1000B8F70895F894FFCFE207EE07F207F6071B
:104B2000FA07FE07020806080A080E081208160807
:104B30001A081E08220826082A082E08950F950F25
:104B4000E50FE50F27104310C20FC20F4E10C20F22
:104B5000E610E6104411C20FC20F4D11F010F01014
:104B6000F010F010F010F010F010F010F010F01045
:104B7000F010F010F010F010F010F010FD100B110C
:104B8000121119112311AF11AF11B811B811BA11C7
:104B9000B811B811B811AF11AF11BF11B811B811D8
:104BA000BF11B822DD22C123DD22C1230D232E2314
:064BB000C12383238F23C3
:104BB60002022808140A321E0C1D9E1D791D431D73
:104BC6000F1D01F4F5F6F731919034C6976694926D
:104BD60035363095323393404D3639770D2A0DF4FC
:0C4BE6000CBB0C4E0C670C800C990C00F2
:00000001FF
